:1000000024C03CC03BC0CCC039C0E8C037C036C0FB
:1000100035C034C07F417F00007F79494F41497F1F
:100020000F087E4F49797F497903017F7F497F4FD0
:10003000497F7F40607F207F000000A81F220003CF
:100040002001DA028D14AF0010B011241FBECFE9D9
:10005000CDBF10E0A0E6B0E0EEE0F3E002C0059016
:100060000D92AC37B107D9F720E0ACE7B0E001C0A2
:100070001D92AF37B207E1F7D3D047C1C1CFBC9AC9
:10008000BB98BC98089598E0BC9A87FDBC98BB9833
:10009000BB9A880F9150C1F7BC98BB98BB9A089542
:1000A000BC9ABB9A88E7EFCF6F927F929F92AF92F4
:1000B000BF92CF92DF92EF92FF920F931F93CF9355
:1000C000DF93CDB7DD27C450CDBF7C01E9DF80E4ED
:1000D000DADF8701670188E0C80ED11C7E0195E058
:1000E000E90EF11CF80181918F01E82FEE0FBE2E71
:1000F000B80E38E0A32E80E0C6DFAA94A110FBCF93
:1001000023E0A22E992493949B0CEB2DF0E0EC5E5F
:10011000FF4FE491DE0111968E2F8270880F880FB9
:10012000880F9E2F9170892B982F990F892B982FCC
:10013000990F990F892B8D93E695E695EA16FB06A4
:1001400059F7F2E0AF1203C096E0B92E02C084E086
:10015000B82EBA94FFEFBF1659F0CE0101963C01BC
:10016000F30181913F018FDFE614F704C9F7F1CF66
:10017000AA94B92CA110C6CF0C151D0509F0B2CF59
:10018000CC5FCDBFDF91CF911F910F91FF90EF908A
:10019000DF90CF90BF90AF909F907F906F906FCF88
:1001A0001F920F920FB60F9211248F9380917E00B1
:1001B0008F5F80937E0080917E00811109C013BE05
:1001C00080917000882321F010927D0010927C00B5
:1001D0008F910F900FBE0F901F9018951F920F9246
:1001E0000FB60F9211242F938F939F9380917000DD
:1001F000882349F020917E0082B790E0922B909363
:100200007D0080937C0012BE10927E0083E083BF4D
:100210009F918F912F910F900FBE0F901F90189567
:1002200081E085BD83E084BB8AE088B982E089BF34
:10023000789487B3877E87BB88B3877E88BB30DF9F
:1002400080E021DFCBE3D0E00AE410E0FE018491FE
:100250001ADF21960C171D07C9F711DFC1E088E8E6
:10026000C82E8AE2D82E81E1E82EF12C109270007F
:1002700020917C0030917D00C093700022313105C7
:10028000F0F040E050E0C701B6011DD0E1E7F0E03A
:10029000A1E6B0E040E050E06191719180E0261766
:1002A000370720F08F5F261B370BF9CF8D934F5FF9
:1002B0005F4F4530510581F780E690E002C088E647
:1002C00090E0F2DED3CFA1E21A2EAA1BBB1BFD01E8
:1002D0000DC0AA1FBB1FEE1FFF1FA217B307E40725
:1002E000F50720F0A21BB30BE40BF50B661F771F7D
:1002F000881F991F1A9469F760957095809590955D
:0E0300009B01AC01BD01CF010895F894FFCF21
:10030E000C00000000000C0C0C0C050A000B0C0C71
:0C031E00011027E80364000A0001000041
:00000001FF
